:030000000209539F
:0C095300787FE4F6D8FD7581130208914E
:0A092200C2A3D2A7D2A27FF47E0187
:10092C00E4FDFCC3ED9FEE6480F8EC648098500706
:07093C000DBD00010C80EC71
:010943002291
:0F094400758920758DFD759850D28E75A89022FB
:03002300020800D0
:10080000C0E0C0D075D00820980302088C859910EC
:10081000C298E51024CF602414603B146054240374
:10082000706AC2A7C2A2D2A6C2A0C2A1C2A4120963
:1008300022C2A7C2A230A6FDD2A68050C2A7C2A2E1
:10084000D2A6D2A0C2A1D2A4120922C2A7C2A230AB
:10085000A6FDD2A68036C2A7C2A2D2A6C2A0D2A1AD
:10086000C2A4D2A3120924C2A7C2A230A6FDD2A656
:10087000801AC2A7C2A2D2A6D2A0D2A1D2A4D2A3C9
:10088000120924C2A7C2A230A6FDD2A6D0D0D0E0C1
:010890003235
:10089100C2A0C2A1C2A4C2A31209447FE87E03126E
:1008A100092CC2A7C2A2D2A67F647E0012092CD253
:1008B100A7D2A27FF40E12092CC2A7C2A230A6FDB4
:1008C1007F647E0012092CD2A6859013E51375F082
:1008D1000A84C454F0F512E51375F00A8485F01109
:1008E100E5124511F580AF9020A40820A305E4F599
:1008F10099801F30A40820A305759901801420A4B4
:100901000830A305759902800930A40630A3037548
:1009110099033099FDC2998F993099FDC2990208C6
:010921009C39
:00000001FF
