:100A0A00020800000114000A0AC0F9A4B0999282EF
:030A1A00F88090D1
:0C08000043891043884075B001E4F59076
:10080C00E4F515F515AF09AE081209700515E515D7
:10081C00C3940240F0E514702C0509E5097002053B
:10082C0008AE08FF7C007D0A12091BEF4E7004F520
:10083C00908033EF14FF7401A807088002C333D8EB
:10084C00FC42908021E509150970021508AE08AF2D
:10085C00097C007D0A12091B7401A807088002C3D9
:10086C0033D8FCF45290E509645A45086006E50952
:10087C004508708CE51470047F0180027F008F1492
:03088C0002080C53
:1009E500E4FDFCEFFBC3ED9B7480F86C9850157526
:1009F5008B30758DFCE58830E7FB53887F0DBD0096
:040A0500010C80DF81
:010A090022CA
:0209B600AD078B
:1009B800E4FC53A0FE74807E00A804088006CEA242
:1009C800E713CE13D8F8FFEDFBEF5B600543A002F9
:0C09D800800353A0FD43A0010CBC08D616
:0109E40022F0
:100970008E168F17E4FA7408A802088002C313D8F1
:10098000FCF5B053A0FBAE16AF177C007D0A120930
:100990001B740A2DF8E6FF1209B643A0047F071264
:1009A00009E5AE16AF177C007D0A12091B8E168F63
:0509B000170ABA04C1A2
:0109B500221F
:0300000002088F64
:0C088F00787FE4F6D8FD7581170208D6CA
:10091B00BC000BBE0029EF8DF084FFADF022E4CCC0
:10092B00F875F008EF2FFFEE33FEEC33FCEE9DEC89
:10093B00984005FCEE9DFE0FD5F0E9E4CEFD22EDCF
:10094B00F8F5F0EE8420D21CFEADF075F008EF2F19
:10095B00FFED33FD4007985006D5F0F222C398FD0A
:05096B000FD5F0EA22A7
:10089B00020800E493A3F8E493A34003F68001F26B
:1008AB0008DFF48029E493A3F85407240CC8C3335E
:1008BB00C4540F4420C8834004F456800146F6DF2D
:1008CB00E4800B0102040810204080900A0AE47EA9
:1008DB00019360BCA3FF543F30E509541FFEE49322
:1008EB00A360010ECF54C025E060A840B8E493A3E9
:1008FB00FAE493A3F8E493A3C8C582C8CAC583CA14
:10090B00F0A3C8C582C8CAC583CADFE9DEE780BECB
:010A1D0000D8
:00000001FF
