:03000000020012E9
:0C001200787FE4F6D8FD75810B020068D1
:0F000300758920758DFD759850D28E75A8902245
:03002300020026B2
:10002600C0E0C0D0309836859908C298E50824CF3C
:10003600601524D0601514601714601914601B2411
:1000460034701AC2878016D2878012758DE8800DAB
:10005600758DF48008758DFA8003758DFDD0D0D02E
:02006600E03286
:1000680012000385900BE50B75F00A84C454F0F573
:1000780009E50B75F00A8485F00AE509450AF5A03B
:0B008800AFA08F993099FDC29980D87D
:00000001FF
